:020000040800F2
:1000000088060020650100086D0100086F010008E6
:1000100000000000000000000000000000000000E0
:100020000000000000000000000000007101000856
:1000300000000000000000007301000875010008C6
:100040007701000800000000770100087701000830
:1000500077010008770100087701000877010008A0
:100060000000000077010008770100087701000810
:100070007701000875030008770100080000000000
:100080007701000800000000000000007701000870
:1000900000000000770100087701000877010008E0
:1000A0007701000877010008770100087701000850
:1000B00077010008000000000000000000000000C0
:1000C00000F002F800F03EF812A030C808382418FA
:1000D0002D18AC4201D100F035F80FCCA246AB464A
:1000E0000CA730CF2D1B083F3F197C427F1E544484
:1000F0002D090426F441641EAC4201D300F022F81D
:100100000126334200D0FB1A3343984754465D46DC
:10011000DFE7000010100000201000007047000012
:100120000023002400250026103A01D378C1FBD813
:10013000520700D330C100D50B6070471FB51FBDFB
:1001400010B510BD00F0E3F81146FFF7F7FF00F01F
:100150006FFD00F0FBF803B4FFF7F2FF03BC00F003
:1001600001F900000748804707480047FEE7FEE71F
:10017000FEE7FEE7FEE7FEE704480549054A064BB1
:100180007047000073030008C100000888000020C9
:10019000880600208802002088020020002203092F
:1001A0008B422CD3030A8B4211D300239C464EE092
:1001B00003460B433CD4002243088B4231D303094E
:1001C0008B421CD3030A8B4201D394463FE0C30900
:1001D0008B4201D3CB01C01A524183098B4201D318
:1001E0008B01C01A524143098B4201D34B01C01A03
:1001F000524103098B4201D30B01C01A5241C3087B
:100200008B4201D3CB00C01A524183088B4201D3E9
:100210008B00C01A524143088B4201D34B00C01AD5
:100220005241411A00D201465241104670475DE0EA
:10023000CA0F00D04942031000D3404253409C46AD
:10024000002203098B422DD3030A8B4212D389016A
:10025000FC2212BA030A8B420CD3890192118B4201
:1002600008D3890192118B4204D389013AD09211AB
:1002700000E08909C3098B4201D3CB01C01A524166
:1002800083098B4201D38B01C01A524143098B422F
:1002900001D34B01C01A524103098B4201D30B0118
:1002A000C01A5241C3088B4201D3CB00C01A52413D
:1002B00083088B4201D38B00C01A5241D9D2430824
:1002C0008B4201D34B00C01A5241411A00D2014661
:1002D0005241104663465B1001D34042002B00D5CB
:1002E0004942704763465B1000D3404201B505495F
:1002F000002802DC491C084000E00846C046C04611
:1003000002BD00BFFFFFFF7F704770477047754613
:1003100000F024F8AE46050069465346C008C00008
:10032000854618B020B5FFF727FF60BCB64600260B
:100330000027C0C5C0C5C0C5C0C5C0C5C0C5C0C5F3
:10034000C0C5403D490849008D46704710B5044678
:10035000C046C0462046FFF7FEFE10BD004870476D
:100360000000002001491820ABBEFEE72600020075
:100370007047704780B51A480068C00700282DD024
:10038000FFE717490868012290430860154800F00C
:10039000BDFD00211448405E00F0CAFD13490888E5
:1003A000401C088012480068012805D1FFE70E496B
:1003B0000888401C088010E00D48006800280BD118
:1003C000FFE700210848405E152804DBFFE70649E7
:1003D00000200880FFE7FFE7FFE7FFE780BDC0469A
:1003E000102C0140EB100008740000208000002059
:1003F0006800002081B00146684601700021405627
:10040000002809D4FFE7684601781F200140012039
:10041000884002490860FFE701B0704700E100E052
:1004200070B582B0024601A80270009100214056CA
:10043000002816D4FFE7002401A908570322D3435C
:100440001840174A805809578C07E50EFF24AC4026
:10045000A043009CA401E4B2AC4020431940885062
:100460001AE001A908780F24204008380322D3435A
:1004700018400A4A8058002549578D07EE0EFF257F
:10048000B540A843009DAD01EDB2B54028432140E1
:10049000083919408850FFE702B070BD1CED00E03C
:1004A00000E400E081B09B480068C00700280ED03F
:1004B000FFE798490868022210430860FFE7954863
:1004C0000068C007002801D0FFE7F8E7FFE791497F
:1004D0000868012212071043086000200090FFE71F
:1004E0000098C0087C2806D8FFE700BFFFE7009807
:1004F000401C0090F4E701B07047C04610B582B0D0
:10050000564908680122104308600868022318430E
:10051000086053480168120511430160514A11688F
:1005200003239B07994311600068C007002806D188
:10053000FFE74B490868012210430860FFE74A497A
:10054000086810221043086005200107019108681F
:1005500003221043086008680C23184308600868E9
:100560003023184308600868C023184308600868EF
:10057000130218430860086893021843086008686B
:100580001303184308600868930318430860086859
:100590001405204308603549086818430860344949
:1005A0000868920790430860FFF77CFF5849086885
:1005B0000122104308605749086810430860FFE7AC
:1005C00053480068C007002801D1FFE7F8E7294831
:1005D00000688002002814D5FFE74D490868012211
:1005E0005303184308602349086852059043086084
:1005F000FFE7474800688004002801D4FFE7F8E7D8
:10060000FFE71C4A106818218843106010682021F9
:100610008843106011680120430399431160164A12
:10062000116807242143116011687024214311606F
:10063000124A1168840521431160354A1168194333
:10064000116032490860FFE73148006880040028E3
:1006500001D4FFE7F8E702B010BDC04634100240F5
:1006600040100240541002400000014000040050BD
:10067000102401400C2401401424014008270140AB
:1006800082B069460870214800680978C840C007F0
:10069000002812D0FFE71F490868042210430860B1
:1006A000FFE71B4800684007002801D4FFE7F8E790
:1006B0001948006801A9088024E0154A1168012042
:1006C0004303194311606946097888400F4908605F
:1006D000FFE70F4800688004002801D4FFE7F8E72F
:1006E0000C490868042210430860FFE708480068C6
:1006F0004007002801D4FFE7F8E70748006801A990
:100700000880FFE701A8008802B070472824014054
:1007100000240140082401404024014080B582B0FB
:10072000014601A8009001700078FFF7A9FF00982A
:100730000078FFF7A5FF02B080BD000082B00190F5
:1007400001984E49884203DBFFE75648009092E04B
:1007500001984B49884207DBFFE701988102604816
:10076000401A8012009085E001984649884208DBD3
:10077000FFE70199584848435849401880120090B3
:1007800077E001984049884208DBFFE7019950482B
:100790004843504940188012009069E001983B4955
:1007A000884208DBFFE7019947484843474940181A
:1007B000801200905BE001983549884209DBFFE731
:1007C0000199F920C04348433E49401880120090E7
:1007D0004CE001982F49884209DBFFE70199E220AC
:1007E000C043484336494018801200903DE00198CC
:1007F0002949884209DBFFE70199E420C0434843C7
:100800002E494018801200902EE00198234988421A
:1008100009DBFFE70199FC20C04348432649401803
:10082000801200901FE001981D49884208DBFFE715
:1008300001991F4848431F4940188012009011E059
:100840000198CB218900884208DBFFE7019916480F
:100850004843164940188012009002E01148009069
:10086000FFE7FFE7FFE7FFE7FFE7FFE7FFE7FFE758
:10087000FFE7FFE7FFE7009802B070478C0F00002A
:10088000270F0000830E00008F0D0000410C0000B8
:10089000A70A0000E3080000220700008D05000001
:1008A00039040000E703000083FEFFFF6F170E000E
:1008B000D2FEFFFFC3C70C0074BB0B00B90A0B00CC
:1008C00046FD0A007CF40B00CDFEFFFFE2AC0E00FB
:1008D0005CFEFFFF29AA14008FFDFFFFF9442000F2
:1008E00000EC370082B001A9088000200090FFE7EB
:1008F000009801A90A887D21C9005143884206D287
:10090000FFE700BFFFE70098401C0090F0E702B04F
:1009100070470000244908680222104308602349F8
:100920000868012398430860086890430860002124
:100930008848405E022834DBFFE700218548405E9E
:1009400003282EDCFFE71A480068C007002804D1FE
:10095000FFE7184901200860FFE7164800680128F2
:100960000BD1FFE712480068C007002804D0FFE75A
:10097000114901200860FFE7FFE70E4800680128E1
:100980000ED1FFE70C480068012809D1FFE795491F
:100990000120086007490020086007490860FFE758
:1009A000FFE7904800687047341002400004005090
:1009B00010040050780000207C00002080B5FFF774
:1009C000A9FF00F0B5FA8C4800F0A0FA00216148B8
:1009D000405E00280AD4FFE700215E48405E0328FD
:1009E00004DCFFE7012000F041F9FFE7FFF792FF89
:1009F00000285AD1FFE700215648405E04280ADB50
:100A0000FFE700215348405E082804DCFFE701208F
:100A100000F02CF9FFE700214E48405E09280ADB70
:100A2000FFE700214B48405E0A2804DCFFE7032073
:100A300000F01CF938E000214648405E0B280ADB34
:100A4000FFE700214348405E122804DCFFE7022054
:100A500000F00CF927E000213E48405E13280ADB35
:100A6000FFE700213B48405E142804DCFFE7032039
:100A700000F0FCF816E000213648405E152810DB37
:100A8000FFE734490020088056490860574908604C
:100A90005749086065490860584908602F4908802F
:100AA000FFE7FFE7FFE7FFE753E0FFF733FF01282A
:100AB0004ED1FFE7284800F029FA00212548405E82
:100AC00004280ADBFFE700212248405E052804DCF9
:100AD000FFE7032000F0CAF839E000211D48405E1E
:100AE00006280ADBFFE700211A48405E092804DCDB
:100AF000FFE7022000F0BAF828E000211548405E28
:100B00000A280ADBFFE700211248405E0B2804DCBC
:100B1000FFE7032000F0AAF817E000210D48405E2F
:100B20000C2811DBFFE70B49002008802D490860E5
:100B30002E4A012111602E4A11603C4A10602F4A52
:100B4000116006490880FFE7FFE7FFE7FFE7FFE7DF
:100B5000FFE780BD74000020E21000088000002044
:100B600080B51F4800F0D2F91E48006800F0E0F997
:100B70001D4800F0CBF91D48006800280ED1FFE7A2
:100B80001B480068002809D1FFE700F043FA194824
:100B900000F0BCF9184800F0B9F9FFE71748006801
:100BA00001280DD1FFE700F02FF8154800F0AEF94D
:100BB00000F0E2F800F0BCF90F4800F0A7F9FFE7F9
:100BC0001A480068012809D1FFE7FFF7F7FE0D4832
:100BD00000F09CF9084800F099F9FFE780BDC04695
:100BE000B610000870000020B1100008600000205E
:100BF000640000201E110008AE1000086C000020E8
:100C00000A1100081311000880B500F0B5F8FA28A1
:100C100004DBFFE705490120086006E000F0ACF8BE
:100C2000F92801DCFFE7FFE7FFE780BD680000204F
:100C300080B582B0002001904B20400200F006F900
:100C4000074800F063F90748074900F0A5F8FFF7E7
:100C500055FCFFE7FFF784FF6420FFF743FEF9E749
:100C60009C100008FF0F0000430F000080B582B009
:100C7000019094490868012210430860052001078B
:100C800000910868202398430860086810231843DF
:100C90000860086880239843086008684023184368
:100CA00008600868530298430860086813021843F4
:100CB00008600868D30298430860086892021043ED
:100CC00008600198012815D1FFE7264B186810220B
:100CD00010431860244908681043086018682022EF
:100CE000D24310401860086810400860214800F0A6
:100CF0000DF934E00198022815D1FFE7194B186867
:100D00001021CA4310401860174908681040086055
:100D100018682022104318600868104308601448BF
:100D200000F0F4F81AE00198032816D1FFE70D4B04
:100D300018681021CA43104018600B490868104019
:100D4000086018682022D2431040186008681040DC
:100D50000860064800F0DAF8FFE7FFE7FFE702B0B7
:100D600080BDC0461400005018000050DA10000882
:100D7000D2100008CA10000880B582B0002001908F
:100D800000900720FFF7CAFC00900098FFF7D6FC00
:100D90000190019802B080BDF0B585B00091024687
:100DA000009804A90A8003AA01921080464B186893
:100DB0000122D402204318601F48036813430360D4
:100DC00003681024E7433B40036003682026B343D5
:100DD000036003684025AB43036003681402A34328
:100DE000036003685402A343036003688024234321
:100DF000036001980988114B1960114B196839403B
:100E00001960196831431960196829431960196814
:100E1000A143196000880B4908600B49086810431A
:100E200008600D2002900C21FFF7FAFA0298FFF7F4
:100E3000E1FA05B0F0BDC046002C0140282C01406D
:100E4000182C01402C2C01400C2C014080B582B0A4
:100E500001908A4908680222104308601A4908680C
:100E60000122009293031843086085490868130320
:100E700098430860086853031843086013490868DA
:100E80000F231B0698430860086813061843086080
:100E90000F490868032398430860086810430860F6
:100EA00001990C48FFF77AF9009A0B4908600B4941
:100EB000086808231843086008681043086002B0F7
:100EC00080BDC0463410024040100240240400504F
:100ED000541002400024F4000C3801400038014056
:100EE00081B0014668460170007806490860FFE756
:100EF000054800684006002801D4FFE7F8E701B084
:100F00007047C046283801401C38014080B582B087
:100F10000190FFE701980078002807D0FFE70198CB
:100F2000411C01910078FFF7DBFFF3E702B080BDC1
:100F300080B590B00E900BA93348088133480C90CF
:100F400033480B9000200790059004900E980028DD
:100F500009D5FFE70E9840420E900798401C079075
:100F600001200490FFE70E98039007980690FFE792
:100F70000698092817DCFFE70E98002804D1FFE740
:100F80003020FFF7ADFF0EE00398002801D1FFE706
:100F900009E003980A21FFF70BF90390FFE7069891
:100FA000401C0690E4E70698401E0290FFE7029876
:100FB000002817D4FFE70E980A210191FFF7F8F8EF
:100FC000084601990590059A0BA8805C029B08AA27
:100FD000D0540E98FFF7ECF80E90FFE70298401EF1
:100FE0000290E4E70498012804D1FFE708A92D2026
:100FF0000870FFE7069A08A800218154FFF786FFD2
:101000000F9810B080BDC0463839000034353637EF
:101010003031323380B51949086802221043086024
:10102000174908680122D3039843086008689203AF
:1010300010430860134908688022904308601249F1
:1010400008681043086000211048405E08280CDB47
:10105000FFE70D4908688022904308600C49012091
:1010600008600D48FFF752FF06E0094900200860BC
:101070000848FFF74BFFFFE780BDC0463410024031
:1010800000040050040400501404005080000020AC
:101090006C000020FF100008F51000080D0A4465E0
:1010A00062756720537461727465640D0A000A0DDD
:1010B00000202020200020202048414C4C20464584
:1010C00045444241434B2020200020204D5F4620D4
:1010D000200020204D5F5220200020204D5F532013
:1010E00020002048616C6C3D312000207274696DD5
:1010F00065203D2000207666696C6C6564200020C8
:10110000217666696C6C6564200020746368656391
:101110006B200020696220726F7461742000766316
:101120006F6E660034110008000000208806000081
:041130002001000892
:040000050800016589
:00000001FF
