:020000040800F2
:1000000088060020650100086D0100086F010008E6
:1000100000000000000000000000000000000000E0
:100020000000000000000000000000007101000856
:1000300000000000000000007301000875010008C6
:100040007701000800000000770100087701000830
:1000500077010008770100087701000877010008A0
:100060000000000077010008770100087701000810
:100070007701000875030008770100080000000000
:100080007701000800000000000000007701000870
:1000900000000000770100087701000877010008E0
:1000A0007701000877010008770100087701000850
:1000B00077010008000000000000000000000000C0
:1000C00000F002F800F03EF812A030C808382418FA
:1000D0002D18AC4201D100F035F80FCCA246AB464A
:1000E0000CA730CF2D1B083F3F197C427F1E544484
:1000F0002D090426F441641EAC4201D300F022F81D
:100100000126334200D0FB1A3343984754465D46DC
:10011000DFE700000410000014100000704700002A
:100120000023002400250026103A01D378C1FBD813
:10013000520700D330C100D50B6070471FB51FBDFB
:1001400010B510BD00F0E3F81146FFF7F7FF00F01F
:1001500073FD00F0FBF803B4FFF7F2FF03BC00F0FF
:1001600001F900000748804707480047FEE7FEE71F
:10017000FEE7FEE7FEE7FEE704480549054A064BB1
:100180007047000073030008C100000888000020C9
:10019000880600208802002088020020002203092F
:1001A0008B422CD3030A8B4211D300239C464EE092
:1001B00003460B433CD4002243088B4231D303094E
:1001C0008B421CD3030A8B4201D394463FE0C30900
:1001D0008B4201D3CB01C01A524183098B4201D318
:1001E0008B01C01A524143098B4201D34B01C01A03
:1001F000524103098B4201D30B01C01A5241C3087B
:100200008B4201D3CB00C01A524183088B4201D3E9
:100210008B00C01A524143088B4201D34B00C01AD5
:100220005241411A00D201465241104670475DE0EA
:10023000CA0F00D04942031000D3404253409C46AD
:10024000002203098B422DD3030A8B4212D389016A
:10025000FC2212BA030A8B420CD3890192118B4201
:1002600008D3890192118B4204D389013AD09211AB
:1002700000E08909C3098B4201D3CB01C01A524166
:1002800083098B4201D38B01C01A524143098B422F
:1002900001D34B01C01A524103098B4201D30B0118
:1002A000C01A5241C3088B4201D3CB00C01A52413D
:1002B00083088B4201D38B00C01A5241D9D2430824
:1002C0008B4201D34B00C01A5241411A00D2014661
:1002D0005241104663465B1001D34042002B00D5CB
:1002E0004942704763465B1000D3404201B505495F
:1002F000002802DC491C084000E00846C046C04611
:1003000002BD00BFFFFFFF7F704770477047754613
:1003100000F024F8AE46050069465346C008C00008
:10032000854618B020B5FFF727FF60BCB64600260B
:100330000027C0C5C0C5C0C5C0C5C0C5C0C5C0C5F3
:10034000C0C5403D490849008D46704710B5044678
:10035000C046C0462046FFF7FEFE10BD004870476D
:100360000000002001491820ABBEFEE72600020075
:100370007047704715480068C007002825D0FFE780
:100380001249086801229043086011490888401CFE
:10039000088010480068012805D1FFE70E49088849
:1003A000401C088010E00B48006800280BD1FFE7D4
:1003B00000210948405E152804DBFFE706490020BC
:1003C0000880FFE7FFE7FFE7FFE77047102C0140D9
:1003D00080000020680000207400002081B00146E9
:1003E0006846017000214056002809D4FFE768469E
:1003F00001781F2001400120884002490860FFE782
:1004000001B0704700E100E070B582B0024601A87B
:100410000270009100214056002816D4FFE7002406
:1004200001A908570322D3431840174A8058095797
:100430008C07E50EFF24AC40A043009CA401E4B26D
:10044000AC402043194088501AE001A908780F24D5
:10045000204008380322D34318400A4A8058002518
:1004600049578D07EE0EFF25B540A843009DAD010D
:10047000EDB2B54028432140083919408850FFE7C4
:1004800002B070BD1CED00E000E400E081B09B48CC
:100490000068C00700280ED0FFE7984908680222CC
:1004A00010430860FFE795480068C007002801D0A6
:1004B000FFE7F8E7FFE791490868012212071043B8
:1004C000086000200090FFE70098C0087C2806D84C
:1004D000FFE700BFFFE70098401C0090F4E701B081
:1004E0007047C04610B582B05649086801221043D3
:1004F0000860086802231843086053480168120521
:1005000011430160514A116803239B07994311600D
:100510000068C007002806D1FFE74B4908680122A0
:1005200010430860FFE74A4908681022104308603A
:10053000052001070191086803221043086008683C
:100540000C231843086008683023184308600868C3
:10055000C02318430860086813021843086008683D
:10056000930218430860086813031843086008687A
:100570009303184308600868140520430860354950
:100580000868184308603449086892079043086077
:10059000FFF77CFF5849086801221043086057495B
:1005A000086810430860FFE753480068C007002848
:1005B00001D1FFE7F8E7294800688002002814D538
:1005C000FFE74D4908680122530318430860234997
:1005D0000868520590430860FFE7474800688004B8
:1005E000002801D4FFE7F8E7FFE71C4A106818214C
:1005F0008843106010682021884310601168012032
:10060000430399431160164A11680724214311607E
:100610001168702421431160124A11688405214336
:100620001160354A11681943116032490860FFE7CB
:10063000314800688004002801D4FFE7F8E702B0E1
:1006400010BDC04634100240401002405410024019
:100650000000014000040050102401400C2401401F
:10066000142401400827014082B0694608702148DF
:1006700000680978C840C007002812D0FFE71F496A
:100680000868042210430860FFE71B480068400721
:10069000002801D4FFE7F8E71948006801A908809D
:1006A00024E0154A1168012043031943116069468B
:1006B000097888400F490860FFE70F480068800408
:1006C000002801D4FFE7F8E70C490868042210432A
:1006D0000860FFE7084800684007002801D4FFE7EA
:1006E000F8E70748006801A90880FFE701A800882B
:1006F00002B0704728240140002401400824014032
:100700004024014080B582B0014601A800900170EC
:100710000078FFF7A9FF00980078FFF7A5FF02B067
:1007200080BD000082B0019001984E49884203DBF1
:10073000FFE75648009092E001984B49884207DB5A
:10074000FFE7019881026048401A8012009085E01E
:1007500001984649884208DBFFE701995848484319
:10076000584940188012009077E00198404988422B
:1007700008DBFFE701995048484350494018801270
:10078000009069E001983B49884208DBFFE7019946
:100790004748484347494018801200905BE0019861
:1007A0003549884209DBFFE70199F920C0434843F6
:1007B0003E494018801200904CE001982F49884231
:1007C00009DBFFE70199E220C0434843364940185E
:1007D000801200903DE001982949884209DBFFE73B
:1007E0000199E420C04348432E49401880120090EC
:1007F0002EE001982349884209DBFFE70199FC209C
:10080000C043484326494018801200901FE00198D9
:100810001D49884208DBFFE701991F4848431F49EB
:1008200040188012009011E00198CB218900884285
:1008300008DBFFE701991648484316494018801223
:10084000009002E011480090FFE7FFE7FFE7FFE7B5
:10085000FFE7FFE7FFE7FFE7FFE7FFE7FFE70098B6
:1008600002B070478C0F0000270F0000830E0000BD
:100870008F0D0000410C0000A70A0000E3080000F3
:10088000220700008D05000039040000E703000086
:1008900083FEFFFF6F170E00D2FEFFFFC3C70C00E1
:1008A00074BB0B00B90A0B0046FD0A007CF40B0078
:1008B000CDFEFFFFE2AC0E005CFEFFFF29AA140094
:1008C0008FFDFFFFF944200000EC370082B001A942
:1008D000088000200090FFE7009801A90A887D2188
:1008E000C9005143884206D2FFE700BFFFE70098E6
:1008F000401C0090F0E702B07047000024490868EF
:1009000002221043086023490868012398430860C5
:100910000868904308600021B848405E022834DB34
:10092000FFE70021B548405E03282EDCFFE71A48A8
:100930000068C007002804D1FFE7184901200860BB
:10094000FFE71648006801280BD1FFE7124800684E
:10095000C007002804D0FFE7114901200860FFE725
:10096000FFE70E48006801280ED1FFE70C48006839
:10097000012809D1FFE772490120086007490020DA
:10098000086007490860FFE7FFE76D4800687047A7
:100990003410024000040050100400507800002081
:1009A0007C00002080B5FFF7A9FF00F0B5FA8E4863
:1009B00000F0A0FA00219148405E00280AD4FFE729
:1009C00000218E48405E022804DCFFE7012000F091
:1009D00053F9FFE7FFF792FF00285AD1FFE7002104
:1009E0008648405E03280ADBFFE700218348405E1B
:1009F000082804DCFFE7012000F03EF9FFE70021B2
:100A00007E48405E09280ADBFFE700217B48405E04
:100A10000A2804DCFFE7032000F02EF938E000216B
:100A20007648405E0B280ADBFFE700217348405EF2
:100A3000122804DCFFE7022000F01EF927E0002165
:100A40006E48405E13280ADBFFE700216B48405EDA
:100A5000142804DCFFE7032000F00EF916E0002163
:100A60006648405E152810DBFFE7644900200880D7
:100A70003349086059490860594908606D49086060
:100A80005A4908605F490880FFE7FFE7FFE7FFE793
:100A900053E0FFF733FF01284ED1FFE7274800F06E
:100AA00029FA00215548405E04280ADBFFE70021AF
:100AB0005248405E052804DCFFE7032000F0DCF824
:100AC00039E000214D48405E06280ADBFFE700219F
:100AD0004A48405E092804DCFFE7022000F0CCF819
:100AE00028E000214548405E0A280ADBFFE7002194
:100AF0004248405E0B2804DCFFE7032000F0BCF80E
:100B000017E000213D48405E0C2811DBFFE73B4920
:100B1000002008800A490860304A01211160304AEB
:100B20001160444A1060314A116036490880FFE77D
:100B3000FFE7FFE7FFE7FFE7FFE780BDBF10000823
:100B40007000002080B582B02448006800280ED1D3
:100B5000FFE723480068002809D1FFE700F04EFABC
:100B6000204800F0C7F9204800F0C4F9FFE71F480B
:100B7000006801280DD1FFE700F046F81C4800F09E
:100B8000B9F900F0EFF800F0C7F9174800F0B2F932
:100B9000FFE728480068012809D1FFE7FFF702FFB7
:100BA000144800F0A7F9104800F0A4F9FFE7124834
:100BB00000F0A0F9002101911048405E00F0ACF96E
:100BC0000F4800F097F901990E48405E00F0A4F933
:100BD000054800F08FF902B080BDC04660000020DB
:100BE00064000020F2100008961000086C0000203D
:100BF0009910000805110008AD10000874000020CD
:100C0000B61000088000002080B500F0ABF8F02896
:100C100004DBFFE707490120086009E000F0A2F8C3
:100C2000EF2804DCFFE7034900200860FFE7FFE747
:100C300080BDC0466800002080B582B000200190D1
:100C40004B20400200F0F8F8084800F053F908483B
:100C5000084900F097F8FFF745FCFFE7FFF772FF40
:100C60007D20C000FFF732FEF8E7C0468410000880
:100C7000FF0F0000430F000082B00190F94908689F
:100C80000122104308600520010700910868202315
:100C90009843086008681023184308600868802398
:100CA00098430860086840231843086008685302A6
:100CB0009843086008681302184308600868D30264
:100CC0009843086008689202104308600198012860
:100CD00012D1FFE7214B18681022104318602049F9
:100CE00008681043086018682022D243104018603A
:100CF0000868104008602EE00198022812D1FFE732
:100D0000164B18681021CA4310401860144908682F
:100D100010400860186820221043186008681043CB
:100D2000086017E00198032813D1FFE70B4B186800
:100D30001021CA4310401860094908681040086033
:100D400018682022D24310401860086810400860DC
:100D5000FFE7FFE7FFE702B07047C046140000500E
:100D60001800005080B582B000200190009007204C
:100D7000FFF7C8FC00900098FFF7D4FC01900198A1
:100D800002B080BDF0B585B000910246009804A97C
:100D90000A8003AA01921080454B18680122D402F0
:100DA000204318601F48036813430360036810243E
:100DB000E7433B40036003682026B34303600368B6
:100DC0004025AB43036003681402A3430360036838
:100DD0005402A34303600368802423430360019803
:100DE0000988114B1960114B19683940196019684D
:100DF000314319601968294319601968A1431960C2
:100E000000880B4908600B490868104308600D20F2
:100E100002900C21FFF7F8FA0298FFF7DFFA05B00D
:100E2000F0BDC046002C0140282C0140182C014088
:100E30002C2C01400C2C014080B582B001908949D6
:100E400008680222104308601949086801220092CC
:100E500093031843086084490868130398430860A3
:100E60000868530318430860124908680F231B06DB
:100E70009843086008681306184308600E4908681C
:100E800003239843086008681043086001990B48E1
:100E9000FFF784F9009A0A4908600A49086808239C
:100EA0001843086008681043086002B080BDC0465F
:100EB0004010024024040050541002400024F4006A
:100EC0000C3801400038014081B00146684601708D
:100ED000007806490860FFE70548006840060028DA
:100EE00001D4FFE7F8E701B07047C0462838014059
:100EF0001C38014080B582B00190FFE7019800786E
:100F0000002807D0FFE70198411C01910078FFF706
:100F1000DBFFF3E702B080BD80B590B00E900BA967
:100F20003348088133480C9033480B9000200790D9
:100F3000059004900E98002809D5FFE70E984042CE
:100F40000E900798401C079001200490FFE70E9830
:100F5000039007980690FFE70698092817DCFFE73B
:100F60000E98002804D1FFE73020FFF7ADFF0EE018
:100F70000398002801D1FFE709E003980A21FFF751
:100F800017F90390FFE70698401C0690E4E70698DF
:100F9000401E0290FFE70298002817D4FFE70E9842
:100FA0000A210191FFF704F9084601990590059A75
:100FB0000BA8805C029B08AAD0540E98FFF7F8F8A3
:100FC0000E90FFE70298401E0290E4E70498012883
:100FD00004D1FFE708A92D200870FFE7069A08A8AA
:100FE00000218154FFF786FF0F9810B080BDC046E6
:100FF00038390000343536373031323380B519494D
:101000000868022210430860174908680122D303C8
:101010009843086008689203104308601349086801
:10102000802290430860124908681043086000213C
:101030001048405E08280CDBFFE70D490868802255
:10104000904308600C49012008600D48FFF752FFEB
:1010500006E00949002008600848FFF74BFFFFE75A
:1010600080BDC0463410024000040050040400500B
:1010700014040050800000206C000020DE100008E6
:10108000D11000080D0A44656275672053746172BF
:101090007465640D0A000A0D00636865636B696E10
:1010A00067206963652074656D702020002072746C
:1010B000696D653D2000207674696D653D200048AE
:1010C000616C6C20666565646261636B203D2031F4
:1010D0000076616C76652066696C6C65640076618B
:1010E0006C7665206973206E6F742066696C6C6520
:1010F0006400636F6E666967756972696E672076F2
:10110000616C766500726F746174696E67206963E3
:101110006520626F780000002811000800000020A0
:08112000880600002001000810
:040000050800016589
:00000001FF
